:020000040800F2
:1000000000500020D9020008290300082903000835
:100010002903000829030008290300080000000044
:10002000000000000000000000000000290300089C
:100030002903000800000000290300082903000824
:1000400029030008290300082903000829030008E0
:1000500029030008290300082903000829030008D0
:1000600029030008290300082903000829030008C0
:1000700029030008290300082903000829030008B0
:1000800029030008290300082903000829030008A0
:100090002903000829030008290300082903000890
:1000A0002903000829030008290300082903000880
:1000B0002903000829030008290300082903000870
:1000C0002903000829030008290300082903000860
:1000D0002903000829030008290300082903000850
:1000E0002903000829030008000000002903000874
:1000F0002903000829030008290300082903000830
:10010000290300082903000829030008290300081F
:10011000290300082903000829030008290300080F
:1001200029030008290300082903000829030008FF
:1001300010B5054C237833B9044B13B10448AFF321
:1001400000800123237010BD00000020000000008B
:100150007403000808B5034B1BB103490348AFF310
:10016000008008BD000000000400002074030008A7
:1001700080B485B000AF78600B46FB701346BB704F
:100180004FF0FF33FB600023BB60FB7803F00703F5
:100190009B000F2202FA03F3DB431A46FB6813406D
:1001A000FB60BA78FB7803F007039B0002FA03F3C5
:1001B0001A46BB681343BB60FB78072B0CD97B68DE
:1001C0005A68FB681A407B685A607B685A68BB684B
:1001D0001A437B685A600BE07B681A68FB681A4018
:1001E0007B681A607B681A68BB681A437B681A6070
:1001F00000BF1437BD4680BC704780B483B000AFE9
:1002000078600B46FB707B689A68FB7822FA03F3F0
:10021000DBB203F00103DBB218460C37BD4680BCED
:10022000704780B483B000AF78600B46FB707B688A
:10023000DA68FB7822FA03F303F001031A01FB7872
:10024000134401229A407B681A6100BF0C37BD46F7
:1002500080BC704780B485B000AF78600023FB603D
:1002600003E000BFFB680133FB607B684FF47A72E8
:1002700002FB03F3FA689A42F3D300BF00BF1437BE
:10028000BD4680BC7047000080B500AF0F4B1B68B7
:100290000E4A43F01003136007220D210C48FFF7AC
:1002A00067FF08220E210A48FFF762FF0E21084867
:1002B000FFF7A3FF03461A46064B1A700D210448A8
:1002C000FFF7AFFF6420FFF7C5FFEFE7181002400C
:1002D000001001401C0000200D488546AFF300804F
:1002E0000C480D490D4A002302E0D458C450043391
:1002F000C4188C42F9D30A4A0A4C002301E0136067
:100300000432A242FBD300F011F8FFF7BDFFFEE775
:10031000005000200000002000000020940300088E
:100320000000002020000020FEE7000070B500263D
:100330000C4D0D4C641BA410A64209D100F01AF814
:1003400000260A4D0A4C641BA410A64205D170BDBC
:1003500055F8043B98470136EEE755F8043B9847BB
:100360000136F2E78C0300088C0300088C030008B8
:1003700090030008F8B500BFF8BC08BC9E46704763
:0C038000F8B500BFF8BC08BC9E467047F2
:04038C00550100080F
:04039000310100082F
:04000005080002D914
:00000001FF
