:020000040800F2
:10000000005000200D0300085D0300085D03000898
:100010005D0300085D0300085D03000800000000A8
:100020000000000000000000000000005D03000868
:100030005D030008000000005D0300085D03000888
:100040005D0300085D0300085D0300085D03000810
:100050005D0300085D0300085D0300085D03000800
:100060005D0300085D0300085D0300085D030008F0
:100070005D0300085D0300085D0300085D030008E0
:100080005D0300085D0300085D0300085D030008D0
:100090005D0300085D0300085D0300085D030008C0
:1000A0005D0300085D0300085D0300085D030008B0
:1000B0005D0300085D0300085D0300085D030008A0
:1000C0005D0300085D0300085D0300085D03000890
:1000D0005D0300085D0300085D0300085D03000880
:1000E0005D0300085D030008000000005D030008D8
:1000F0005D0300085D0300085D0300085D03000860
:100100005D0300085D0300085D0300085D0300084F
:100110005D0300085D0300085D0300085D0300083F
:100120005D0300085D0300085D0300085D0300082F
:1001300010B5054C237833B9044B13B10448AFF321
:1001400000800123237010BD00000020000000008B
:10015000A803000808B5034B1BB103490348AFF3DC
:10016000008008BD0000000004000020A803000873
:1001700080B489B000AFF860B9601346FB7100230A
:10018000FB610023BB6100237B6119E0FB691B015C
:10019000FB61BB691B01BB61BB6803F40043002B1F
:1001A00004D0FB79BA691343BB6103E0FB6943F0F8
:1001B0000F03FB61BB685B00BB607B6901337B6144
:1001C0007B69072BE2D9264AFB691360254ABB6984
:1001D0001360FB685A68FB691A40FB685A60FB6849
:1001E0005A68BB691A43FB685A600023FB6100230D
:1001F000BB6100233B6119E0FB691B01FB61BB692B
:100200001B01BB61BB6803F40043002B04D0FB79E6
:10021000BA691343BB6103E0FB6943F00F03FB6161
:10022000BB685B00BB603B6901333B613B69072BEB
:10023000E2D90B4AFB6913600A4ABB691360FB6889
:100240001A68FB691A40FB681A60FB681A68BB6988
:100250001A43FB681A6000BF2437BD4680BC704754
:100260001C0000202000002080B485B000AF786022
:100270000023FB6003E000BFFB680133FB607B6889
:100280004FF47A7202FB03F3FA689A42F3D300BF89
:1002900000BF1437BD4680BC7047000080B500AF7A
:1002A000154B1B68144A43F010031360134B1B6873
:1002B000134A136003224FF400511048FFF758FF10
:1002C0000E4B5B680F4A13600C4B1B680E4A1360A1
:1002D0000A4BDB68094A43F40053D3606420FFF7FC
:1002E000C3FF064BDB68054A23F40053D360642048
:1002F000FFF7BAFFECE700BF181002400010014002
:1003000024000020280000202C0000200D488546F5
:10031000AFF300800C480D490D4A002302E0D45889
:10032000C4500433C4188C42F9D30A4A0A4C00233F
:1003300001E013600432A242FBD300F011F8FFF792
:10034000ADFFFEE70050002000000020000000206C
:10035000C80300080000002030000020FEE7000075
:1003600070B500260C4D0D4C641BA410A64209D19B
:1003700000F01AF800260A4D0A4C641BA410A6428D
:1003800005D170BD55F8043B98470136EEE755F8A6
:10039000043B98470136F2E7C0030008C003000899
:1003A000C0030008C4030008F8B500BFF8BC08BCCF
:1003B0009E467047F8B500BFF8BC08BC9E46704723
:0403C00055010008DB
:0403C40031010008FB
:040000050800030DDF
:00000001FF
